:100000000C94D4000C94FC000C94FC000C94FC00A8
:100010000C94FC000C94FC000C94FC000C94FC0070
:100020000C94FC000C94FC000C9491060C940007BA
:100030000C94FC000C94FC000C94FC000C94FC0050
:100040000C94FC000C94FC000C94FC000C94FC0040
:100050000C94FC000C94FC000C94FC000C943209F1
:100060000C94FC000C94FC000C94FC000C94FC0020
:100070000C94FC000C94FC000C94FC000C94FC0010
:100080000C94FC000C94FC000C94FC000C94FC0000
:100090000C94FC000C94FC000C94FC000C94FC00F0
:1000A0000C94FC000C94FC000C94FC00000000007C
:1000B000240027002A002D00300000000000250049
:1000C00028002B002E003100000000002300260035
:1000D00029002C002F000404040404030405020278
:1000E00002020403020202020606060606060404D1
:1000F0000202020404040802011040804010204063
:10010000804080080204018040201002011080100D
:10011000204040200000000200090F0000030401FD
:10012000000C0000000000000000000000000000C3
:100130000000080B00020202000009040000010296
:10014000020000052400100105240101010424021D
:10015000060524060001070581031000400904017B
:1001600000020A00000007050202400000070583A4
:10017000024000000403090412010002EF020140E2
:100180004F1B0692000101020301537061726B461E
:10019000756E00537061726B46756E2050726F20E1
:1001A0004D6963726F007C0911241FBECFEFDAE046
:1001B000DEBFCDBF11E0A0E0B1E0EAE7F7E102C0A9
:1001C00005900D92AE39B107D9F722E0AEE9B1E062
:1001D00001C01D92A536B207E1F710E0C4EDD0E0F2
:1001E00004C02197FE010E94B50BC33DD107C9F79A
:1001F0000E94A6090C94BB0B0C940000FC0180919A
:100200000C02882311F13FB7F89482E08093E90053
:100210002091F200822F90E01816190614F481E064
:1002200090E0882339F0289844E640930B024091EF
:10023000F1004083222339F02091F200211103C004
:100240002BE62093E8003FBF08958FEF9FEF0895BE
:100250002FB7F89483E08093E9009091E800892F0C
:10026000807295FF04C09091F20080E4891B2FBF3B
:1002700008958091030281110DC082E08093FF01F7
:1002800084E080930002109202021092010281E049
:10029000809303028FEF91E008954091F90150910E
:1002A000FA012091F7013091F80142175307B4F495
:1002B0009091E8009570E1F39091E80092FD19C0EB
:1002C0008093F1008091F9019091FA0101968F736A
:1002D0009927892B19F48EEF8093E8008091F9011A
:1002E0009091FA0101969093FA018093F90181E0CF
:1002F000089580E00895EF92FF920F931F93CF939C
:10030000DF93F82E192FE62E042F81E0860F880F39
:100310000E944D0183E00E944D01CF2DD12FEC0EA4
:10032000FD2EF11CCE15DF05B9F007FF13C0FE014D
:1003300084910E944D01182F80E00E944D0181237D
:1003400021968111EFCFDF91CF911F910F91FF90F7
:10035000EF9008958881EDCF81E0F5CFDF92EF92A5
:10036000FF920F931F93CF93DF93D82E8A01EB0157
:100370007B01E40EF51ECE15DF0559F0D7FE12C045
:10038000FE0184910E944D0121968111F4CF0FEF5F
:100390001FEFC801DF91CF911F910F91FF90EF9058
:1003A000DF9008958881EECF0F931F93CF93DF9353
:1003B0001F92CDB7DEB782E0898342E450E062E36A
:1003C00071E080E80E94AE010E943901DC011296C2
:1003D0000D911C910115110589F0D801ED91FC9149
:1003E0000280F381E02DBE016F5F7F4FC801099548
:1003F00097FD04C0F80100851185ECCF89810F902D
:10040000DF91CF911F910F910895615030F02091AD
:10041000F100FC0120830196F8CF289884E68093B0
:100420000B020895CF93DF931F92CDB7DEB7698398
:10043000DC01ED91FC910280F381E02D41E050E080
:10044000BE016F5F7F4F09950F90DF91CF910895A7
:1004500083E08093E9008091F200882319F08AE319
:100460008093E80008950E94280190E00895CF93BA
:10047000DF931F92CDB7DEB7FC018485958597FD8C
:1004800008C02FEF3FEF358724870F90DF91CF9182
:100490000895CE0101960E94FE00019719F489810A
:1004A00090E0F3CF8FEF9FEFF0CF0F931F93CF9399
:1004B000DF931F92CDB7DEB78C01FC018485958553
:1004C00097FF0BC0CE0101960E94FE00019771F4C8
:1004D000898190E0F80195878487F8018485958566
:1004E0000F90DF91CF911F910F9108958FEF9FEFA4
:1004F000F1CFFC018485958597FD0BC09FB7F894DB
:1005000082E08093E9008091F2009FBF90E0019625
:1005100008959FB7F89482E08093E9008091F200FB
:100520009FBF90E0089581508F3008F047C0E82FBA
:10053000F0E0E356FD4F0C94B50BBA02BE02AC02DC
:10054000B202B602DE02DE02DE02C102C702CB0246
:10055000CF02D502DE02D902809180008F7780938E
:1005600080000895809180008F7DF9CF8091800078
:10057000877FF5CF84B58F7784BD089584B58F7D4F
:10058000FBCF809190008F778093900008958091A9
:1005900090008F7DF9CF80919000877FF5CF80917B
:1005A000C0008F778093C00008958091C0008F7D38
:1005B000F9CF8091C200877F8093C2000895CF93C6
:1005C000DF93282F30E0F901EC5EFE4F8491F901B2
:1005D000EB50FF4FD491F901EA52FF4FC491CC2365
:1005E000A1F081110E949302EC2FF0E0EE0FFF1FAB
:1005F000E853FF4FA591B491EC91ED2381E090E099
:1006000009F480E0DF91CF91089580E090E0FACF87
:100610001F93CF93DF93282F30E0F901EC5EFE4F5C
:100620008491F901EB50FF4FD491F901EA52FF4F49
:10063000C491CC23A9F0162F81110E949302EC2FB4
:10064000F0E0EE0FFF1FE654FF4FA591B4918FB776
:10065000F894EC91111108C0D095DE23DC938FBF84
:10066000DF91CF911F910895DE2BF8CFCF93DF93C9
:1006700090E0FC01EB50FF4F24918A529F4FFC0108
:1006800084918823D1F090E0880F991FFC01E455F4
:10069000FF4FA591B491FC01E654FF4FC591D49151
:1006A00061110EC09FB7F8948C91E22FE0958E23D4
:1006B0008C932881E223E8839FBFDF91CF91089537
:1006C0008FB7F894EC91E22BEC938FBFF6CFCF93DA
:1006D000C82F60E00E94360361E08C2FCF910C940C
:1006E0000803CF93C82F60E00E94080361E08C2FBD
:1006F000CF910C943603AF92BF92CF92DF92EF92DC
:10070000FF920F931F93CF93DF93182F8BE99FE0F6
:100710000197F1F7809161020E94DF02892B09F4B1
:10072000AAC0809163020E94DF02892B09F4A6C04F
:1007300080916302909164020E947103CBE4D0E047
:10074000CE010197F1F780916102909162020E94BF
:1007500071038BE990E00197F1F78091610290912C
:1007600062020E9467032197F1F7D8E0C1E02BE411
:10077000C22ED12C3BE9A32EB12CE12EF12C80917D
:10078000630290916402012F017010FF6EC00E94FD
:100790006703C6010197F1F78091610290916202AF
:1007A0000E947103C5010197F1F780916102909158
:1007B00062020E946703C6010197F1F7802F8C2720
:1007C000F594E7941E2DD15009F04DC0809163023D
:1007D000909164020C1709F44BC00E946703CBE4AC
:1007E000D0E0CE010197F1F7809161029091620211
:1007F0000E9471030BE910E0C8010197F1F78091A5
:100800006102909162020E946703CE010197F1F7A5
:1008100080916302909164020E946703CE01019768
:10082000F1F780916102909162020E947103C80108
:100830000197F1F780916102909162020E94670333
:100840002197F1F78BE99FE00197F1F790E080E0C5
:10085000DF91CF911F910F91FF90EF90DF90CF909C
:10086000BF90AF900895C82F88CF0E94710391CF99
:100870000E947103B4CF8FEF9FEFEACF8EEF9FEF0F
:10088000E7CF8AEF0E947B03892BD9F708954F9217
:100890005F926F927F928F929F92AF92BF92CF9210
:1008A000DF92EF92FF920F931F93CF93DF933C0160
:1008B0008FB7F89480900D0290900E02A0900F02D6
:1008C000B09010028FBF809163020E94DF027C0112
:1008D000892BB9F02FB7F89480910D0290910E02F8
:1008E000A0910F02B09110022FBF88199909AA098F
:1008F000BB094F97A105B10530F3EE24EA94FE2C15
:1009000098C0809161020E94DF02019719F7CBE441
:10091000D0E0CE010197F1F78091610290916202DF
:100920000E9471038BE990E00197F1F780916102D9
:10093000909162020E9467032197F1F738E0C32E7D
:10094000D12C55245394912C812CAA24A394B12CFE
:1009500044244394CBE4D0E00BE910E0809163029F
:100960000E94DF02019719F48A289B285424AA0CBC
:10097000BB1CCE010197F1F7809161029091620258
:100980000E947103C8010197F1F780916102909173
:1009900062020E946703CE010197F1F781E0C81A55
:1009A000D108E1F6809163020E94DF026C01CE0162
:1009B0000197F1F780916102909162020E947103A8
:1009C000C8010197F1F780916102909162020E9443
:1009D0006703CE010197F1F7CE010197F1F78091FE
:1009E0006302909164020E94710380916102909170
:1009F00062020E947103C8010197F1F780916102C0
:100A0000909162020E9467032197F1F7809163023F
:100A1000909164020E946703F301808281E0CA948E
:100A2000CD2809F080E0851521F09EEFE92EFF2406
:100A3000FA94C701DF91CF911F910F91FF90EF9032
:100A4000DF90CF90BF90AF909F908F907F906F90EE
:100A50005F904F9008953FB7F89480919F019091D7
:100A6000A001A091A101B091A20126B5A89B05C04B
:100A70002F3F19F00196A11DB11D3FBFBA2FA92F1D
:100A8000982F8827BC01CD01620F711D811D911D1A
:100A900042E0660F771F881F991F4A95D1F7089586
:100AA0008F929F92AF92BF92CF92DF92EF92FF927E
:100AB0004B015C010E942B056B017C010E942B0500
:100AC0006C197D098E099F09683E73408105910567
:100AD000A8F321E0821A9108A108B10888EEC80E97
:100AE00083E0D81EE11CF11C81149104A104B1041F
:100AF00029F7FF90EF90DF90CF90BF90AF909F903D
:100B00008F9008958F929F92AF92BF92CF92DF9273
:100B1000EF92FF920F931F93CF93DF936C017B01B2
:100B20008A0180910B01882309F45CC080910C023A
:100B3000882309F457C08091FD0180FF05C0809192
:100B4000E00082608093E000E801B12C8AEFA82EDB
:100B500093E0892E2AE3922E209711F4BB20D9F13D
:100B60000E94280181110AC0AA94AA20D9F161E04B
:100B700070E080E090E00E945005EECF8C171D06DB
:100B800011F00CF08C2F9FB7F8948092E90020911F
:100B9000E80025FD02C09FBFDFCF282F30E0C21B39
:100BA000D30BF701815020F041914093F100FACF2F
:100BB000E20EF31EBB2021F09092E800B12CEBCFA7
:100BC0008091E80085FDE7CF9092E800BB24B394C4
:100BD000209709F3F3CF5D9884E68093FE01101609
:100BE00011063CF081E090E0F6019383828310E0EF
:100BF00000E0C801DF91CF911F910F91FF90EF901E
:100C0000DF90CF90BF90AF909F908F900895FC01A0
:100C100001900020E9F73197AF01481B590BBC0147
:100C200081E192E00C9482058F929F92AF92BF92E5
:100C30000F931F93CF93DF93CDB7DEB7A1970FB676
:100C4000F894DEBF0FBECDBF19A2423008F44AE0CF
:100C50008E010F5D1F4F842E912CB12CA12CA5016C
:100C600094010E94930BE62FB901CA01EA30F4F413
:100C7000E05DD801EE938D01232B242B252B79F7F2
:100C800090E080E0109719F0CD010E940706A19630
:100C90000FB6F894DEBF0FBECDBFDF91CF911F918D
:100CA0000F91BF90AF909F908F900895E95CE1CF36
:100CB000CF92DF92EF92FF92CF93DF936B017C0193
:100CC0006DE281E192E00E941202EC016627772733
:100CD000CB016C197D098E099F094AE00E94140618
:100CE0008C0F9D1FDF91CF91FF90EF90DF90CF9001
:100CF0000895CF93DF93BC01990F880B990B97FF51
:100D00000CC00E945806EC018FE891E00E94070693
:100D10008C0F9D1FDF91CF9108954AE00E94140629
:100D2000F2CF1F920F920FB60F9211248F939F93C1
:100D30008091E1009091E100937F9093E10083FF27
:100D40000FC01092E90091E09093EB001092EC003C
:100D500092E39093ED0010920C0298E09093F000D3
:100D600082FF22C093E09093E9009091F2009923D2
:100D700019F09AE39093E8009091FE01992341F0D5
:100D80009091FE0191509093FE01911101C05D9AE6
:100D900090910B02992341F090910B029150909306
:100DA0000B02911101C0289A84FF18C08091E200C3
:100DB0008E7E81608093E2008091E1008F7E80933F
:100DC000E1008091FD018E7E80618093FD019F9105
:100DD0008F910F900FBE0F901F90189580FFF7CF47
:100DE0008091E2008E7E80618093E2008091E1003C
:100DF0008E7E8093E1008091FD018E7E8160E5CF43
:100E00001F920F920FB60F921124CF92DF92EF92A2
:100E1000FF920F931F932F933F934F935F936F9383
:100E20007F938F939F93AF93BF93EF93FF93CF9352
:100E3000DF93CDB7DEB76C97DEBFCDBF1092E90070
:100E40008091E80083FF25C068E0CE0145960E94AE
:100E5000050282EF8093E8008D8987FF39C0909169
:100E6000E80090FFFCCF982F907609F034C19E895E
:100E70004F89588D2F89F88C911131C0803861F5D8
:100E80008091FC018093F1001092F1008EEF80932D
:100E9000E8006C960FB6F894DEBF0FBECDBFDF91B1
:100EA000CF91FF91EF91BF91AF919F918F917F91E2
:100EB0006F915F914F913F912F911F910F91FF90F3
:100EC000EF90DF90CF900F900FBE0F901F9018956E
:100ED0009EEF9093E800C7CF1092F100D5CF9130EC
:100EE00059F48111D3CF4130510581F68091FC0135
:100EF0008D7F8093FC01CACF933049F48111C6CF16
:100F00004130510519F68091FC018260F2CF953095
:100F100041F48091E80080FFFCCF20682093E3003B
:100F2000B5CF963009F0A9C00B8D1C8D22E0109230
:100F3000E9001092FA011092F901F2122EC01092FB
:100F4000F8011092F7010E94D4011F8299E0998361
:100F5000FA8291E09E8390EA98879AEF9987209190
:100F6000F9013091FA01275F3F4F3C832B838D833A
:100F70001092E9001092FA011092F9011093F80111
:100F80000093F70149E050E0BE016F5F7F4F80E0C2
:100F90000E94AE010E94D40179CF1093F801009312
:100FA000F7010E943901DC0112960D911C91011587
:100FB000110509F451C1D801ED91FC910480F5812E
:100FC000E02DBE016B5E7F4FC8010995009709F0C7
:100FD0003EC1F80100851185EACFF3E0FF120EC093
:100FE0008F89882309F440C0823061F440E862E1CF
:100FF00083E991E00E947B01811148CF81E28093D7
:10100000EB0047CF813029F440E868E08AE891E0BE
:10101000F1CF833099F70E943901DC011296ED90EF
:10102000FC908E010F5F1F4F6801E114F10479F00D
:10103000D701ED91FC910680F781E02DB801C70141
:101040000995080F111DF701E084F184EECFD80156
:101050001C92F60101900020E9F73197BF016C194D
:101060007D0940E0C601C6CF64E771E0FB01449111
:1010700050E080E80E94AE0109CF973009F4BECF5E
:10108000983021F481E08093F10000CF993009F08D
:10109000FDCE837009F0B2CFE7E7F1E081E031E007
:1010A00096E32191222371F08093E9003093EB00C5
:1010B000DF0111972C912093EC009093ED008F5F4E
:1010C000873079F78EE78093EA001092EA008F89E3
:1010D00080930C02DBCE8B8D9C8D1092E9001092D8
:1010E000FA011092F9019093F8018093F701898D2C
:1010F000811192C08E899D89913A49F4813209F01B
:101100007DCF47E050E064E071E080E0B3CF913202
:1011100009F074CF833269F48F89988DB0E0A0E034
:101120008093000190930101A0930201B093030109
:10113000ADCE803269F48091E80082FFFCCF67E099
:1011400084E091E00E9405028BEF8093E8009ECE40
:10115000823209F09BCE8F8980930B01EEEFFFE77F
:10116000859194918B3F9C4D51F1E0E0F8E08091A6
:10117000040190910501A0910601B0910701803B07
:101180009440A105B105F1F480910B0180FD1AC0D6
:10119000EE3F8AE0F80789F587E797E79183808338
:1011A000809160008093FB0188E19BE00FB6F8948A
:1011B000A895809360000FBE9093600067CEEEEF1D
:1011C000FAE0D5CF808191818737974709F05ECECD
:1011D000A895809160008861809360008091FB01F8
:1011E00080936000EE3F2AE0F20789F08091FE0ACA
:1011F0009091FF0A9183808349CE808191818737C6
:10120000980751F29093FF0A8093FE0AC5CF10927F
:10121000FF0A1092FE0A3ACE0E943901DC011296B2
:101220000D911C910115110509F4E8CED801ED913D
:10123000FC910190F081E02DBE016B5E7F4FC801F3
:101240000995811123CEF80100851185EBCF181681
:1012500019060CF41BCED2CEF1E0FF12BECE68E729
:1012600071E004CF1F920F920FB60F9211242F93AB
:101270003F938F939F93AF93BF9380910D02909173
:101280000E02A0910F02B091100230919E0123E056
:10129000230F2D3758F50196A11DB11D20939E01F6
:1012A00080930D0290930E02A0930F02B093100250
:1012B00080919F019091A001A091A101B091A20104
:1012C0000196A11DB11D80939F019093A001A09351
:1012D000A101B093A201BF91AF919F918F913F91D6
:1012E0002F910F900FBE0F901F90189526E8230F97
:1012F0000296A11DB11DD2CFCF93DF93E1E1F2E0C1
:101300001382128288EE93E0A0E0B0E0848395839C
:10131000A683B78381E891E0918380838FEF9FEF6D
:1013200095878487C1E6D2E083E090E09983888343
:1013300082E090E09B838A8383E090E00E946703D1
:101340008A819B81DF91CF910C946703CF93DF93C8
:1013500000D01F92CDB7DEB7789484B5826084BD8B
:1013600084B5816084BD85B5826085BD85B58160A9
:1013700085BD80916E00816080936E001092810027
:1013800080918100826080938100809181008160E2
:1013900080938100809180008160809380008091A3
:1013A0009100826080939100809191008160809390
:1013B0009100809190008160809390008091C100A5
:1013C00084608093C1008091C10082608093C100DD
:1013D0008091C10081608093C1008091C3008160D1
:1013E0008093C3008091C00082608093C000809190
:1013F000C20081608093C20080917A0084608093F3
:101400007A0080917A00826080937A0080917A00DD
:10141000816080937A0080917A00806880937A005E
:1014200010920C021092FC011092FD018091D700E5
:1014300081608093D70080EA8093D80089B580616D
:1014400089BD89B5826089BD09B400FEFDCF61E028
:1014500070E080E090E00E9450058091D8008F7C81
:1014600080618093D8008091E000807F8093E000CD
:101470008091E1008E7E8093E1008DE08093E20018
:10148000559A209A8AEA0E947B03892BD9F76AE051
:1014900070E080E090E00E9450058FEF9FEF909306
:1014A0001E0280931D021092F4011092F30110921B
:1014B000F6011092F501E3EAF1E083E292E0118295
:1014C000108213821282158214821782168211866C
:1014D000108670968E179F0791F706E611E0F801C7
:1014E00080810E5F1F4F60E00E943603F1E00637F7
:1014F0001F07A9F70CE011E076E1C72E71E0D72EA7
:10150000F801F0800E5F1F4F61E08F2D0E943603BF
:1015100060E08F2D0E940803C016D10689F760E0B5
:10152000A62E60E0B62E809161020E94DF02892B18
:1015300049F5CE0102960E944704892B19F5EA81EC
:10154000ED5EE331F8F4F0E0E855F54F0C94B50B9F
:10155000730B710BC20A5C0BC20A680B5C0B650B48
:10156000650B650BC20AC20AC20AC20AC20AC20AD3
:10157000C20A650BBB0A0E9441048AEA0E947B03EF
:10158000892BD9F7E090F501F090F601F701EE0F05
:10159000FF1FEA59FE4F80810E94DF02C090F301D5
:1015A000D090F401870143E0000F111F4A95E1F745
:1015B00098012C0D3D1D220F331FF901ED55FE4FF3
:1015C00040815181019709F097C04F5F5F4F518370
:1015D000408343305105C1F42A5E3E4FF9018081BA
:1015E0000E947B03B701FF0C880B990B97FF80C00B
:1015F0000E94580682E991E00E9407068091F3015B
:101600009091F4010E9479060091F5011091F60184
:101610000F5F1F4F1093F6010093F50185E991E0EC
:101620000E940706C8010E9479068091F5019091F9
:10163000F6010897D1F51092F6011092F50100918C
:10164000F3011091F401F801EE0FFF1FE45FFE4F6C
:1016500060E080810E9408030F5F1F4F1093F40128
:101660000093F30189E991E00E940706C8010E94F6
:1016700079068091F3019091F401059721F410927D
:10168000F4011092F301E091F301F091F401EE0FF7
:10169000FF1FE45FFE4F61E080810E94080362E368
:1016A00070E080E090E00E945005A114B10409F4BC
:1016B0003ACF0E94000037CF0E944104CE0101962C
:1016C0000E944704892B09F05DCF0E9441045ACF44
:1016D0000E9441048BEA0E947B0383E80E947B0303
:1016E00051CF8EEEFBCF0E944104CE010396E8CF8E
:1016F0004AE00E9414067ECF4330510554F02A5E22
:101700003E4FF901F08080EF0E947B038F2D0E94F5
:101710007B03F801EC0DFD1DEE0FFF1FED55FE4F95
:101720001182108271CFA1E21A2EAA1BBB1BFD01F0
:101730000DC0AA1FBB1FEE1FFF1FA217B307E407B0
:10174000F50720F0A21BB30BE40BF50B661F771F08
:10175000881F991F1A9469F76095709580959095E8
:101760009B01AC01BD01CF010895EE0FFF1F059055
:0A177000F491E02D0994F894FFCFE6
:10177A00FFFFFFFF00E10000000000001500140059
:10178A00130012000F002E002C0034002A0036002D
:10179A0035003300320025002D002B0021003D00CA
:1017AA003C003B00310026002400230022003E00BA
:1017BA00430042003A001E001D001B001A000900E7
:1017CA0044004B004900160015001C001200450099
:1017DA004D005A0000000E0010000A00090008001F
:1017EA0007000600050000C180810000000000001B
:1017FA000012028205330228027902370255020DCD
:0E180A000A002C20007263200063632000009F
:1070000055C000006EC000006CC000006AC00000E7
:1070100068C0000066C0000064C0000062C00000DC
:1070200060C000005EC00000FCC400005AC0000048
:1070300058C0000056C0000054C0000052C00000FC
:1070400050C000005DC000004CC000004AC00000FD
:1070500048C0000046C0000044C0000042C000001C
:1070600040C000003EC000003CC000003AC000002C
:1070700038C0000036C0000034C0000032C000003C
:1070800030C000002EC000002CC000002AC000004C
:1070900028C0000026C0000024C0000022C000005C
:1070A00020C000001EC000001CC0000011241FBE34
:1070B000CFEFDAE0DEBFCDBF11E0A0E0B1E0E6E463
:1070C000FFE702C005900D92A43BB107D9F711E08C
:1070D000A4EBB1E001C01D92AD3CB107E1F74FD385
:1070E00030C78ECFF89410926F001092810081E02B
:1070F00085BF15BE47985D9A289A0C9400000895A4
:107100001F920F920FB60F9211242F938F939F937C
:10711000EF93FF9310928500109284008091B40148
:107120009091B501009741F001979093B50180933C
:10713000B401892B09F45D9A8091B6019091B70151
:10714000009741F001979093B7018093B601892B86
:1071500009F4289A8091BA019091BB01019690930D
:10716000BB018093BA01E0E0F0E0859194918F5FDC
:107170009F4F49F08091B8019091B9010196909389
:10718000B9018093B801FF91EF919F918F912F9159
:107190000F900FBE0F901F90189584E08093E90028
:1071A0000DC08091E8008B778093E80003C08EB318
:1071B000882351F08091E80082FFF9CF8091E800A8
:1071C00085FFEFCF8091F1000895982F83E08093A1
:1071D000E9008091E80085FD0DC08091E8008E7780
:1071E0008093E80003C08EB3882369F08091E800A3
:1071F00080FFF9CF9093F1005D9884E690E0909342
:10720000B5018093B40108954F925F926F927F927F
:107210008F929F92AF92BF92CF92DF92EF92FF92A6
:107220000F931F93CF93DF9384E08093E9008091C5
:10723000E80082FF57C2289884E690E09093B70157
:107240008093B601AADF182F853481F48CE49DE188
:107250009093B9018093B80107B600FCFDCFF9996E
:10726000FECF81E180935700E89503C0843519F47F
:1072700094DF8DE00DC28C34E1F38035D1F3843797
:1072800021F484E4A2DF80E003C2813611F489E5B1
:10729000FFC18134B1F481DF182F7FDF90E0880FC8
:1072A000991FAA2797FDA095BA2F312F330F20E001
:1072B000442737FD4095542F822B932BA42BB52BBD
:1072C000B8C1803711F483E5E3C1833549F4C0E0E8
:1072D000D1E089917ADF21E0C730D207D1F7D9C157
:1072E000863521F481E371DF80E3D2C1833731F445
:1072F00087E86BDF85E969DF8EE1CAC18536B9F4BD
:10730000E0E0F0E093E085E090935700E89507B661
:1073100000FCFDCF80935700E89507B600FCFDCF39
:10732000E058FF4FA0E7E030FA0771F7A2CF8237AD
:1073300039F4E1E0F0E089E0809357008491A8C13E
:10734000863439F4E0E0F0E089E0809357008491DE
:107350009FC18E3439F4E3E0F0E089E08093570078
:10736000849196C1813539F4E2E0F0E089E08093C0
:10737000570084918DC1823631F489E526DF80E0A3
:1073800024DF80E885C1823419F0873609F0E5C032
:107390001092B9011092B80100DF082FFEDEF82E1E
:1073A000FCDE682E8554823008F071C1902F80E099
:1073B000CF2DD0E0C82BD92B10926F00173609F0D3
:1073C0004BC081E180935700E895DD24CC24C39421
:1073D0003FC0E090BD01F090BE010091BF0110914F
:1073E000C001B6E46B16D9F4ED2DF0E0EE29FF29CB
:1073F000E4918E2FEADEDD2081F082E090E0A0E0D3
:10740000B0E0E80EF91E0A1F1B1FE092BD01F092CA
:10741000BE010093BF011093C001DC2418C0D80145
:10742000C701B695A7959795879575D5CEDE82E06D
:1074300090E0A0E0B0E0E80EF91E0A1F1B1FE092EA
:10744000BD01F092BE010093BF011093C0012197CE
:10745000209709F0BECF7DC08090BD019090BE0105
:10746000A090BF01B090C00196E4691609F05DC01C
:1074700083E0F40180935700E89507B600FCFDCF48
:1074800054C0F6E46F1661F5772031F1E090BD014C
:10749000F090BE010091BF011091C0017EDED82E98
:1074A000CC24852D90E08C299D29F7010C01409278
:1074B0005700E895112482E090E0A0E0B0E0E80EEB
:1074C000F91E0A1F1B1FE092BD01F092BE0100933E
:1074D000BF011093C00102C060DE582E742423C087
:1074E000E090BD01F090BE010091BF011091C0017C
:1074F00016950795F794E79450DE682FC70113D5CA
:107500008091BD019091BE01A091BF01B091C001D9
:107510000296A11DB11D8093BD019093BE01A09361
:10752000BF01B093C001219704C05524772444249F
:107530004394209709F0A5CF96E4691641F485E0BD
:10754000F40180935700E89507B600FCFDCF8DE06D
:107550003CDE82E080936F009CC0833471F4009124
:10756000BD011091BE0119DE90E021E0F8010C018F
:1075700020935700E89511247CCE833619F5E090CE
:10758000BD01F090BE010091BF011091C00105DE68
:10759000F701E16090E021E00C0120935700E895AD
:1075A000112482E090E0A0E0B0E0E80EF91E0A1F8E
:1075B0001B1FE092BD01F092BE010093BF0110932A
:1075C000C00157CE8D3661F4E091BD01F091BE014E
:1075D00085E080935700E89507B600FCFDCF49CEC3
:1075E000823551F4E091BD01F091BE0105911491F5
:1075F000812FEBDD802F4CC0843421F5E090BD015C
:10760000F090BE010091BF011091C0011695079541
:10761000F794E794C2DD682FC70185D48091BD013E
:107620009091BE01A091BF01B091C0010296A11D31
:10763000B11D8093BD019093BE01A093BF01B09393
:10764000C00117CE843609F5E090BD01F090BE016F
:107650000091BF011091C001D801C701B695A7954F
:107660009795879558D4B1DD82E090E0A0E0B0E036
:10767000E80EF91E0A1F1B1FE092BD01F092BE0129
:107680000093BF011093C00104C08B3111F08FE350
:107690009CDD83E08093E9009091E8008091E80010
:1076A0008E778093E80095FF04C010C08EB38823C6
:1076B000C9F08091E80080FFF9CF8091E8008E77D3
:1076C0008093E80003C08EB3882361F08091E800C6
:1076D00080FFF9CF84E08093E9008091E8008B7708
:1076E0008093E800DF91CF911F910F91FF90EF9071
:1076F000DF90CF90BF90AF909F908F907F906F90D2
:107700005F904F9008959091C501892F8F778132B6
:1077100049F58091C6018032A1F0813219F5913A84
:1077200009F58091E800877F8093E8008CE091E084
:1077300067E070E027D28091E8008B778093E800C3
:107740000895913279F48091E800877F8093E80072
:107750008CE091E067E070E079D28091E8008E776C
:107760008093E800089582E061EC42E0D1D083E0AC
:1077700061E842E1CDD084E060E842E1C9C01F93F6
:10778000209100081092000844B714BE88E10FB69B
:10779000F89480936000109260000FBE80E8E0E0F3
:1077A000F0E00FB6F89480936100E09361000FBEA3
:1077B00031E035BF92E095BF3F9A209A559A809369
:1077C00061001092610047985D9A289A1092890092
:1077D0008AEF8093880090936F0083E0809381000C
:1077E000859194918F5F9F4F11F03093BC01942F3E
:1077F00041FF19C0809109012817A9F08093000862
:10780000789480911301882339F08091BA01909186
:10781000BB018F5E9240C8F3F8941092000881E09B
:10782000809313010CC090FF04C08091BC01882399
:1078300051F493FF09C080910901281729F0809124
:10784000BC01882309F04EDCD4D078941092B901A1
:107850001092B8011EEF20C0D7DC4BD38091B80145
:107860009091B90181549F4110F0109213018091C1
:10787000C1019091C20101969093C2018093C10110
:10788000292F97FF03C0512F591B252F220F28178F
:1078900010F4479801C0479A809113018823E1F6BC
:1078A0008091E00081608093E0001CDC80E090E04B
:1078B0001F910895FA01923049F0933061F09130B0
:1078C000F9F484E191E022E130E01EC086E291E02B
:1078D0002EE330E019C0882329F484E691E024E007
:1078E00030E012C0813029F488E691E02EE130E0EA
:1078F0000BC0823029F488E891E02AE230E004C02D
:1079000080E090E020E030E091838083C901089519
:107910008093E9008091EB0081608093EB001092EE
:10792000ED006093EC004093ED008091EE00881F25
:107930008827881F08958091C50188238CF403C08F
:107940008EB38823B1F08091E80082FFF9CF809157
:10795000E8008B778093E80008958EB3882349F080
:107960008091E80080FFF9CF8091E8008E778093C6
:10797000E8000895EF92FF920F931F9345D04CD0EB
:1079800008ED10E0F80180818F7780838081806826
:10799000808380818F7D808319BC1EBA1092C301C1
:1079A00080EEE82EF12CF70180818B7F8083F80137
:1079B00080818160808380E060E042E0A9DFE1EEC9
:1079C000F0E080818E7F8083E2EEF0E08081816054
:1079D0008083808188608083F70180818E7F8083AF
:1079E000F8018081806180831F910F91FF90EF905B
:1079F0000895E7EDF0E08081816080838AE482BFB2
:107A000081E08093C401B6CFE8EDF0E080818E7F05
:107A100080831092E20008951092DA001092E10043
:107A200008951F920F920FB60F9211242F933F9338
:107A30004F935F936F937F938F939F93AF93BF9376
:107A4000EF93FF938091DA0080FF1BC08091D800F4
:107A500080FF17C08091DA008E7F8093DA008091DA
:107A6000D90080FF0BC080E189BD82E189BD09B4E6
:107A700000FEFDCF81E08EBB3BD203C019BC1EBA15
:107A800037D28091E10080FF17C08091E20080FF33
:107A900013C08091E2008E7F8093E2008091E2002B
:107AA00080618093E2008091D80080628093D8004A
:107AB00019BC85E08EBB1CD28091E10084FF2CC0F4
:107AC0008091E20084FF28C080E189BD82E189BD08
:107AD00009B400FEFDCF8091D8008F7D8093D8003F
:107AE0008091E1008F7E8093E1008091E2008F7EA3
:107AF0008093E2008091E20081608093E2008091B7
:107B0000C301882331F48091E30087FD02C081E046
:107B100001C084E08EBBECD18091E10083FF21C0E5
:107B20008091E20083FF1DC08091E100877F8093F8
:107B3000E10082E08EBB1092C3018091E1008E7F54
:107B40008093E1008091E2008E7F8093E20080913B
:107B5000E20080618093E20080E060E042E0D8DEF5
:107B6000C7D1FF91EF91BF91AF919F918F917F917D
:107B70006F915F914F913F912F910F900FBE0F909A
:107B80001F9018959C014091CB015091CC01461754
:107B9000570718F4F90190E044C06115710511F020
:107BA000AB01F8CF8091E8008E778093E80040E049
:107BB00050E0F0CF8EB3882309F444C0853009F437
:107BC00043C08091E80083FF02C081E00895809166
:107BD000E80082FD31C08091E80080FF22C08091E2
:107BE000F3009091F200782F60E0292F30E0262BEF
:107BF000372B07C081918093F100415050402F5F97
:107C00003F4F4115510519F02830310598F390E0A8
:107C10002830310509F491E08091E8008E77809357
:107C2000E8004115510531F6992321F605C08EB3C0
:107C3000882341F0853041F08091E80082FFF7CF42
:107C400080E0089582E0089583E008959C01611525
:107C5000710529F48091E8008B778093E800F901A1
:107C600026C08EB3882391F1853091F18091E80090
:107C700083FF02C081E008958091E80082FFF1CF88
:107C800006C08091F10081936150704059F02091BD
:107C9000F3008091F200322F20E090E0822B932BB2
:107CA000892B79F78091E8008B778093E800611544
:107CB0007105B9F605C08EB3882341F0853041F0D7
:107CC0008091E80080FFF7CF80E0089582E008957A
:107CD00083E008950F931F93DF93CF9300D0CDB728
:107CE000DEB7E5ECF1E08091F100819381E0ED3CBD
:107CF000F807C9F708DD8091E80083FFE4C08091B0
:107D0000C5019091C601953009F46DC0963040F4DC
:107D1000913081F1913070F0933009F0D4C02AC0D5
:107D2000983009F4A3C0993009F4B2C0963009F034
:107D3000CAC07CC0803809F4C6C0823809F0C3C00C
:107D40008091C90187708093E9008091EB001092C7
:107D5000E9002091E800277F2093E80090E025E0EB
:107D6000969587952A95E1F781708093F10010929E
:107D7000F10087C0882319F0823009F0A4C08F7108
:107D8000823009F0A0C08091C701882331F520918D
:107D9000C901277009F497C02093E9008091EB0096
:107DA00080FF1BC0933021F48091EB00806213C0F0
:107DB0008091EB0080618093EB0081E090E002C055
:107DC000880F991F2A95E2F78093EA001092EA0043
:107DD0008091EB0088608093EB001092E900809125
:107DE000E800877F51C0882309F06DC01091C7015A
:107DF0001F770FB7F8948091E800877F8093E800A1
:107E00009ADD8091E80080FFFCCF8091E3008078CC
:107E1000812B8093E30080688093E300112311F4A9
:107E200082E001C083E08EBB0FBF4DC0805882301E
:107E300008F049C08091C7019091C8016091C901C3
:107E4000AE014F5F5F4F36DDBC01009709F43BC0C8
:107E50008091E800877F8093E80089819A8192DE93
:107E60008091E8008B778093E8002DC0803859F529
:107E70008091E800877F8093E8008091C301809320
:107E8000F1008091E8008E778093E80054DD1BC0FC
:107E90008823C9F49091C7019230A8F48091E8003A
:107EA000877F8093E8009093C30145DD8091C301F3
:107EB000882331F48091E30087FD02C081E001C096
:107EC00084E08EBB50DC8091E80083FF0AC0809183
:107ED000EB0080628093EB008091E800877F8093C5
:107EE000E8000F900F90CF91DF911F910F910895AF
:107EF00008951F938EB3882361F01091E9001092CA
:107F0000E9008091E80083FF01C0E4DE1770109360
:107F1000E9001F910895F999FECF92BD81BDF89AAD
:107F2000992780B50895262FF999FECF1FBA92BDE3
:107F300081BD20BD0FB6F894FA9AF99A0FBE01964A
:067F40000895F894FFCF44
:107F46004341544552494E41007700080000000065
:107F56000000080112011001020000084F1B0592E3
:107F660001000201000109023E00020100803209FF
:107F7600040000010202010005240010010424028D
:107F8600040524060001070582030800FF09040111
:107F960000020A000000070504021000010705831D
:107FA60002100001040309041E03500072006F0052
:107FB60020004D006900630072006F00200035004C
:107FC60056002000200000002A03530070006100C4
:107FD60072006B00460075006E00200045006C00C4
:107FE60065006300740072006F006E006900630034
:047FF6007300000014
:040000030000700089
:00000001FF