:100000000C94D4000C94FC000C94FC000C94FC00A8
:100010000C94FC000C94FC000C94FC000C94FC0070
:100020000C94FC000C94FC000C9491060C940007BA
:100030000C94FC000C94FC000C94FC000C94FC0050
:100040000C94FC000C94FC000C94FC000C94FC0040
:100050000C94FC000C94FC000C94FC000C943209F1
:100060000C94FC000C94FC000C94FC000C94FC0020
:100070000C94FC000C94FC000C94FC000C94FC0010
:100080000C94FC000C94FC000C94FC000C94FC0000
:100090000C94FC000C94FC000C94FC000C94FC00F0
:1000A0000C94FC000C94FC000C94FC00000000007C
:1000B000240027002A002D00300000000000250049
:1000C00028002B002E003100000000002300260035
:1000D00029002C002F000404040404030405020278
:1000E00002020403020202020606060606060404D1
:1000F0000202020404040802011040804010204063
:10010000804080080204018040201002011080100D
:10011000204040200000000200090F0000030401FD
:10012000000C0000000000000000000000000000C3
:100130000000080B00020202000009040000010296
:10014000020000052400100105240101010424021D
:10015000060524060001070581031000400904017B
:1001600000020A00000007050202400000070583A4
:10017000024000000403090412010002EF020140E2
:100180004F1B0692000101020301537061726B461E
:10019000756E00537061726B46756E2050726F20E1
:1001A0004D6963726F007C0911241FBECFEFDAE046
:1001B000DEBFCDBF11E0A0E0B1E0EAE7F7E102C0A9
:1001C00005900D92AE39B107D9F722E0AEE9B1E062
:1001D00001C01D92A536B207E1F710E0C4EDD0E0F2
:1001E00004C02197FE010E94B50BC33DD107C9F79A
:1001F0000E94A6090C94BB0B0C940000FC0180919A
:100200000C02882311F13FB7F89482E08093E90053
:100210002091F200822F90E01816190614F481E064
:1002200090E0882339F0289844E640930B024091EF
:10023000F1004083222339F02091F200211103C004
:100240002BE62093E8003FBF08958FEF9FEF0895BE
:100250002FB7F89483E08093E9009091E800892F0C
:10026000807295FF04C09091F20080E4891B2FBF3B
:1002700008958091030281110DC082E08093FF01F7
:1002800084E080930002109202021092010281E049
:10029000809303028FEF91E008954091F90150910E
:1002A000FA012091F7013091F80142175307B4F495
:1002B0009091E8009570E1F39091E80092FD19C0EB
:1002C0008093F1008091F9019091FA0101968F736A
:1002D0009927892B19F48EEF8093E8008091F9011A
:1002E0009091FA0101969093FA018093F90181E0CF
:1002F000089580E00895EF92FF920F931F93CF939C
:10030000DF93F82E192FE62E042F81E0860F880F39
:100310000E944D0183E00E944D01CF2DD12FEC0EA4
:10032000FD2EF11CCE15DF05B9F007FF13C0FE014D
:1003300084910E944D01182F80E00E944D0181237D
:1003400021968111EFCFDF91CF911F910F91FF90F7
:10035000EF9008958881EDCF81E0F5CFDF92EF92A5
:10036000FF920F931F93CF93DF93D82E8A01EB0157
:100370007B01E40EF51ECE15DF0559F0D7FE12C045
:10038000FE0184910E944D0121968111F4CF0FEF5F
:100390001FEFC801DF91CF911F910F91FF90EF9058
:1003A000DF9008958881EECF0F931F93CF93DF9353
:1003B0001F92CDB7DEB782E0898342E450E062E36A
:1003C00071E080E80E94AE010E943901DC011296C2
:1003D0000D911C910115110589F0D801ED91FC9149
:1003E0000280F381E02DBE016F5F7F4FC801099548
:1003F00097FD04C0F80100851185ECCF89810F902D
:10040000DF91CF911F910F910895615030F02091AD
:10041000F100FC0120830196F8CF289884E68093B0
:100420000B020895CF93DF931F92CDB7DEB7698398
:10043000DC01ED91FC910280F381E02D41E050E080
:10044000BE016F5F7F4F09950F90DF91CF910895A7
:1004500083E08093E9008091F200882319F08AE319
:100460008093E80008950E94280190E00895CF93BA
:10047000DF931F92CDB7DEB7FC018485958597FD8C
:1004800008C02FEF3FEF358724870F90DF91CF9182
:100490000895CE0101960E94FE00019719F489810A
:1004A00090E0F3CF8FEF9FEFF0CF0F931F93CF9399
:1004B000DF931F92CDB7DEB78C01FC018485958553
:1004C00097FF0BC0CE0101960E94FE00019771F4C8
:1004D000898190E0F80195878487F8018485958566
:1004E0000F90DF91CF911F910F9108958FEF9FEFA4
:1004F000F1CFFC018485958597FD0BC09FB7F894DB
:1005000082E08093E9008091F2009FBF90E0019625
:1005100008959FB7F89482E08093E9008091F200FB
:100520009FBF90E0089581508F3008F047C0E82FBA
:10053000F0E0E356FD4F0C94B50BBA02BE02AC02DC
:10054000B202B602DE02DE02DE02C102C702CB0246
:10055000CF02D502DE02D902809180008F7780938E
:1005600080000895809180008F7DF9CF8091800078
:10057000877FF5CF84B58F7784BD089584B58F7D4F
:10058000FBCF809190008F778093900008958091A9
:1005900090008F7DF9CF80919000877FF5CF80917B
:1005A000C0008F778093C00008958091C0008F7D38
:1005B000F9CF8091C200877F8093C2000895CF93C6
:1005C000DF93282F30E0F901EC5EFE4F8491F901B2
:1005D000EB50FF4FD491F901EA52FF4FC491CC2365
:1005E000A1F081110E949302EC2FF0E0EE0FFF1FAB
:1005F000E853FF4FA591B491EC91ED2381E090E099
:1006000009F480E0DF91CF91089580E090E0FACF87
:100610001F93CF93DF93282F30E0F901EC5EFE4F5C
:100620008491F901EB50FF4FD491F901EA52FF4F49
:10063000C491CC23A9F0162F81110E949302EC2FB4
:10064000F0E0EE0FFF1FE654FF4FA591B4918FB776
:10065000F894EC91111108C0D095DE23DC938FBF84
:10066000DF91CF911F910895DE2BF8CFCF93DF93C9
:1006700090E0FC01EB50FF4F24918A529F4FFC0108
:1006800084918823D1F090E0880F991FFC01E455F4
:10069000FF4FA591B491FC01E654FF4FC591D49151
:1006A00061110EC09FB7F8948C91E22FE0958E23D4
:1006B0008C932881E223E8839FBFDF91CF91089537
:1006C0008FB7F894EC91E22BEC938FBFF6CFCF93DA
:1006D000C82F60E00E94360361E08C2FCF910C940C
:1006E0000803CF93C82F60E00E94080361E08C2FBD
:1006F000CF910C943603AF92BF92CF92DF92EF92DC
:10070000FF920F931F93CF93DF93182F8BE99FE0F6
:100710000197F1F7809161020E94DF02892B09F4B1
:10072000AAC0809163020E94DF02892B09F4A6C04F
:1007300080916302909164020E947103CBE4D0E047
:10074000CE010197F1F780916102909162020E94BF
:1007500071038BE990E00197F1F78091610290912C
:1007600062020E9467032197F1F7D8E0C1E02BE411
:10077000C22ED12C3BE9A32EB12CE12EF12C80917D
:10078000630290916402012F017010FF6EC00E94FD
:100790006703C6010197F1F78091610290916202AF
:1007A0000E947103C5010197F1F780916102909158
:1007B00062020E946703C6010197F1F7802F8C2720
:1007C000F594E7941E2DD15009F04DC0809163023D
:1007D000909164020C1709F44BC00E946703CBE4AC
:1007E000D0E0CE010197F1F7809161029091620211
:1007F0000E9471030BE910E0C8010197F1F78091A5
:100800006102909162020E946703CE010197F1F7A5
:1008100080916302909164020E946703CE01019768
:10082000F1F780916102909162020E947103C80108
:100830000197F1F780916102909162020E94670333
:100840002197F1F78BE99FE00197F1F790E080E0C5
:10085000DF91CF911F910F91FF90EF90DF90CF909C
:10086000BF90AF900895C82F88CF0E94710391CF99
:100870000E947103B4CF8FEF9FEFEACF8EEF9FEF0F
:10088000E7CF8AEF0E947B03892BD9F708954F9217
:100890005F926F927F928F929F92AF92BF92CF9210
:1008A000DF92EF92FF920F931F93CF93DF933C0160
:1008B0008FB7F89480900D0290900E02A0900F02D6
:1008C000B09010028FBF809163020E94DF027C0112
:1008D000892BB9F02FB7F89480910D0290910E02F8
:1008E000A0910F02B09110022FBF88199909AA098F
:1008F000BB094F97A105B10530F3EE24EA94FE2C15
:1009000098C0809161020E94DF02019719F7CBE441
:10091000D0E0CE010197F1F78091610290916202DF
:100920000E9471038BE990E00197F1F780916102D9
:10093000909162020E9467032197F1F738E0C32E7D
:10094000D12C55245394912C812CAA24A394B12CFE
:1009500044244394CBE4D0E00BE910E0809163029F
:100960000E94DF02019719F48A289B285424AA0CBC
:10097000BB1CCE010197F1F7809161029091620258
:100980000E947103C8010197F1F780916102909173
:1009900062020E946703CE010197F1F781E0C81A55
:1009A000D108E1F6809163020E94DF026C01CE0162
:1009B0000197F1F780916102909162020E947103A8
:1009C000C8010197F1F780916102909162020E9443
:1009D0006703CE010197F1F7CE010197F1F78091FE
:1009E0006302909164020E94710380916102909170
:1009F00062020E947103C8010197F1F780916102C0
:100A0000909162020E9467032197F1F7809163023F
:100A1000909164020E946703F301808281E0CA948E
:100A2000CD2809F080E0851521F09EEFE92EFF2406
:100A3000FA94C701DF91CF911F910F91FF90EF9032
:100A4000DF90CF90BF90AF909F908F907F906F90EE
:100A50005F904F9008953FB7F89480919F019091D7
:100A6000A001A091A101B091A20126B5A89B05C04B
:100A70002F3F19F00196A11DB11D3FBFBA2FA92F1D
:100A8000982F8827BC01CD01620F711D811D911D1A
:100A900042E0660F771F881F991F4A95D1F7089586
:100AA0008F929F92AF92BF92CF92DF92EF92FF927E
:100AB0004B015C010E942B056B017C010E942B0500
:100AC0006C197D098E099F09683E73408105910567
:100AD000A8F321E0821A9108A108B10888EEC80E97
:100AE00083E0D81EE11CF11C81149104A104B1041F
:100AF00029F7FF90EF90DF90CF90BF90AF909F903D
:100B00008F9008958F929F92AF92BF92CF92DF9273
:100B1000EF92FF920F931F93CF93DF936C017B01B2
:100B20008A0180910B01882309F45CC080910C023A
:100B3000882309F457C08091FD0180FF05C0809192
:100B4000E00082608093E000E801B12C8AEFA82EDB
:100B500093E0892E2AE3922E209711F4BB20D9F13D
:100B60000E94280181110AC0AA94AA20D9F161E04B
:100B700070E080E090E00E945005EECF8C171D06DB
:100B800011F00CF08C2F9FB7F8948092E90020911F
:100B9000E80025FD02C09FBFDFCF282F30E0C21B39
:100BA000D30BF701815020F041914093F100FACF2F
:100BB000E20EF31EBB2021F09092E800B12CEBCFA7
:100BC0008091E80085FDE7CF9092E800BB24B394C4
:100BD000209709F3F3CF5D9884E68093FE01101609
:100BE00011063CF081E090E0F6019383828310E0EF
:100BF00000E0C801DF91CF911F910F91FF90EF901E
:100C0000DF90CF90BF90AF909F908F900895FC01A0
:100C100001900020E9F73197AF01481B590BBC0147
:100C200081E192E00C9482058F929F92AF92BF92E5
:100C30000F931F93CF93DF93CDB7DEB7A1970FB676
:100C4000F894DEBF0FBECDBF19A2423008F44AE0CF
:100C50008E010F5D1F4F842E912CB12CA12CA5016C
:100C600094010E94930BE62FB901CA01EA30F4F413
:100C7000E05DD801EE938D01232B242B252B79F7F2
:100C800090E080E0109719F0CD010E940706A19630
:100C90000FB6F894DEBF0FBECDBFDF91CF911F918D
:100CA0000F91BF90AF909F908F900895E95CE1CF36
:100CB000CF92DF92EF92FF92CF93DF936B017C0193
:100CC0006DE281E192E00E941202EC016627772733
:100CD000CB016C197D098E099F094AE00E94140618
:100CE0008C0F9D1FDF91CF91FF90EF90DF90CF9001
:100CF0000895CF93DF93BC01990F880B990B97FF51
:100D00000CC00E945806EC018FE891E00E94070693
:100D10008C0F9D1FDF91CF9108954AE00E94140629
:100D2000F2CF1F920F920FB60F9211248F939F93C1
:100D30008091E1009091E100937F9093E10083FF27
:100D40000FC01092E90091E09093EB001092EC003C
:100D500092E39093ED0010920C0298E09093F000D3
:100D600082FF22C093E09093E9009091F2009923D2
:100D700019F09AE39093E8009091FE01992341F0D5
:100D80009091FE0191509093FE01911101C05D9AE6
:100D900090910B02992341F090910B029150909306
:100DA0000B02911101C0289A84FF18C08091E200C3
:100DB0008E7E81608093E2008091E1008F7E80933F
:100DC000E1008091FD018E7E80618093FD019F9105
:100DD0008F910F900FBE0F901F90189580FFF7CF47
:100DE0008091E2008E7E80618093E2008091E1003C
:100DF0008E7E8093E1008091FD018E7E8160E5CF43
:100E00001F920F920FB60F921124CF92DF92EF92A2
:100E1000FF920F931F932F933F934F935F936F9383
:100E20007F938F939F93AF93BF93EF93FF93CF9352
:100E3000DF93CDB7DEB76C97DEBFCDBF1092E90070
:100E40008091E80083FF25C068E0CE0145960E94AE
:100E5000050282EF8093E8008D8987FF39C0909169
:100E6000E80090FFFCCF982F907609F034C19E895E
:100E70004F89588D2F89F88C911131C0803861F5D8
:100E80008091FC018093F1001092F1008EEF80932D
:100E9000E8006C960FB6F894DEBF0FBECDBFDF91B1
:100EA000CF91FF91EF91BF91AF919F918F917F91E2
:100EB0006F915F914F913F912F911F910F91FF90F3
:100EC000EF90DF90CF900F900FBE0F901F9018956E
:100ED0009EEF9093E800C7CF1092F100D5CF9130EC
:100EE00059F48111D3CF4130510581F68091FC0135
:100EF0008D7F8093FC01CACF933049F48111C6CF16
:100F00004130510519F68091FC018260F2CF953095
:100F100041F48091E80080FFFCCF20682093E3003B
:100F2000B5CF963009F0A9C00B8D1C8D22E0109230
:100F3000E9001092FA011092F901F2122EC01092FB
:100F4000F8011092F7010E94D4011F8299E0998361
:100F5000FA8291E09E8390EA98879AEF9987209190
:100F6000F9013091FA01275F3F4F3C832B838D833A
:100F70001092E9001092FA011092F9011093F80111
:100F80000093F70149E050E0BE016F5F7F4F80E0C2
:100F90000E94AE010E94D40179CF1093F801009312
:100FA000F7010E943901DC0112960D911C91011587
:100FB000110509F451C1D801ED91FC910480F5812E
:100FC000E02DBE016B5E7F4FC8010995009709F0C7
:100FD0003EC1F80100851185EACFF3E0FF120EC093
:100FE0008F89882309F440C0823061F440E862E1CF
:100FF00083E991E00E947B01811148CF81E28093D7
:10100000EB0047CF813029F440E868E08AE891E0BE
:10101000F1CF833099F70E943901DC011296ED90EF
:10102000FC908E010F5F1F4F6801E114F10479F00D
:10103000D701ED91FC910680F781E02DB801C70141
:101040000995080F111DF701E084F184EECFD80156
:101050001C92F60101900020E9F73197BF016C194D
:101060007D0940E0C601C6CF64E771E0FB01449111
:1010700050E080E80E94AE0109CF973009F4BECF5E
:10108000983021F481E08093F10000CF993009F08D
:10109000FDCE837009F0B2CFE7E7F1E081E031E007
:1010A00096E32191222371F08093E9003093EB00C5
:1010B000DF0111972C912093EC009093ED008F5F4E
:1010C000873079F78EE78093EA001092EA008F89E3
:1010D00080930C02DBCE8B8D9C8D1092E9001092D8
:1010E000FA011092F9019093F8018093F701898D2C
:1010F000811192C08E899D89913A49F4813209F01B
:101100007DCF47E050E064E071E080E0B3CF913202
:1011100009F074CF833269F48F89988DB0E0A0E034
:101120008093000190930101A0930201B093030109
:10113000ADCE803269F48091E80082FFFCCF67E099
:1011400084E091E00E9405028BEF8093E8009ECE40
:10115000823209F09BCE8F8980930B01EEEFFFE77F
:10116000859194918B3F9C4D51F1E0E0F8E08091A6
:10117000040190910501A0910601B0910701803B07
:101180009440A105B105F1F480910B0180FD1AC0D6
:10119000EE3F8AE0F80789F587E797E79183808338
:1011A000809160008093FB0188E19BE00FB6F8948A
:1011B000A895809360000FBE9093600067CEEEEF1D
:1011C000FAE0D5CF808191818737974709F05ECECD
:1011D000A895809160008861809360008091FB01F8
:1011E00080936000EE3F2AE0F20789F08091FE0ACA
:1011F0009091FF0A9183808349CE808191818737C6
:10120000980751F29093FF0A8093FE0AC5CF10927F
:10121000FF0A1092FE0A3ACE0E943901DC011296B2
:101220000D911C910115110509F4E8CED801ED913D
:10123000FC910190F081E02DBE016B5E7F4FC801F3
:101240000995811123CEF80100851185EBCF181681
:1012500019060CF41BCED2CEF1E0FF12BECE68E729
:1012600071E004CF1F920F920FB60F9211242F93AB
:101270003F938F939F93AF93BF9380910D02909173
:101280000E02A0910F02B091100230919E0123E056
:10129000230F2D3758F50196A11DB11D20939E01F6
:1012A00080930D0290930E02A0930F02B093100250
:1012B00080919F019091A001A091A101B091A20104
:1012C0000196A11DB11D80939F019093A001A09351
:1012D000A101B093A201BF91AF919F918F913F91D6
:1012E0002F910F900FBE0F901F90189526E8230F97
:1012F0000296A11DB11DD2CFCF93DF93E1E1F2E0C1
:101300001382128288EE93E0A0E0B0E0848395839C
:10131000A683B78381E891E0918380838FEF9FEF6D
:1013200095878487C1E6D2E083E090E09983888343
:1013300082E090E09B838A8383E090E00E946703D1
:101340008A819B81DF91CF910C946703CF93DF93C8
:1013500000D01F92CDB7DEB7789484B5826084BD8B
:1013600084B5816084BD85B5826085BD85B58160A9
:1013700085BD80916E00816080936E001092810027
:1013800080918100826080938100809181008160E2
:1013900080938100809180008160809380008091A3
:1013A0009100826080939100809191008160809390
:1013B0009100809190008160809390008091C100A5
:1013C00084608093C1008091C10082608093C100DD
:1013D0008091C10081608093C1008091C3008160D1
:1013E0008093C3008091C00082608093C000809190
:1013F000C20081608093C20080917A0084608093F3
:101400007A0080917A00826080937A0080917A00DD
:10141000816080937A0080917A00806880937A005E
:1014200010920C021092FC011092FD018091D700E5
:1014300081608093D70080EA8093D80089B580616D
:1014400089BD89B5826089BD09B400FEFDCF61E028
:1014500070E080E090E00E9450058091D8008F7C81
:1014600080618093D8008091E000807F8093E000CD
:101470008091E1008E7E8093E1008DE08093E20018
:10148000559A209A8AEA0E947B03892BD9F76AE051
:1014900070E080E090E00E9450058FEF9FEF909306
:1014A0001E0280931D021092F4011092F30110921B
:1014B000F6011092F501E3EAF1E083E292E0118295
:1014C000108213821282158214821782168211866C
:1014D000108670968E179F0791F706E611E0F801C7
:1014E00080810E5F1F4F60E00E943603F1E00637F7
:1014F0001F07A9F70CE011E076E1C72E71E0D72EA7
:10150000F801F0800E5F1F4F61E08F2D0E943603BF
:1015100060E08F2D0E940803C016D10689F760E0B5
:10152000A62E60E0B62E809161020E94DF02892B18
:1015300049F5CE0102960E944704892B19F5EA81EC
:10154000ED5EE331F8F4F0E0E855F54F0C94B50B9F
:10155000730B710BC20A5C0BC20A680B5C0B650B48
:10156000650B650BC20AC20AC20AC20AC20AC20AD3
:10157000C20A650BBB0A0E9441048AEA0E947B03EF
:10158000892BD9F7E090F501F090F601F701EE0F05
:10159000FF1FEA59FE4F80810E94DF02C090F301D5
:1015A000D090F401870143E0000F111F4A95E1F745
:1015B00098012C0D3D1D220F331FF901ED55FE4FF3
:1015C00040815181019709F097C04F5F5F4F518370
:1015D000408343305105C1F42A5E3E4FF9018081BA
:1015E0000E947B03B701FF0C880B990B97FF80C00B
:1015F0000E94580682E991E00E9407068091F3015B
:101600009091F4010E9479060091F5011091F60184
:101610000F5F1F4F1093F6010093F50185E991E0EC
:101620000E940706C8010E9479068091F5019091F9
:10163000F6010897D1F51092F6011092F50100918C
:10164000F3011091F401F801EE0FFF1FE45FFE4F6C
:1016500060E080810E9408030F5F1F4F1093F40128
:101660000093F30189E991E00E940706C8010E94F6
:1016700079068091F3019091F401059721F410927D
:10168000F4011092F301E091F301F091F401EE0FF7
:10169000FF1FE45FFE4F61E080810E94080362E368
:1016A00070E080E090E00E945005A114B10409F4BC
:1016B0003ACF0E94000037CF0E944104CE0101962C
:1016C0000E944704892B09F05DCF0E9441045ACF44
:1016D0000E9441048BEA0E947B0383E80E947B0303
:1016E00051CF8EEEFBCF0E944104CE010396E8CF8E
:1016F0004AE00E9414067ECF4330510554F02A5E22
:101700003E4FF901F08080EF0E947B038F2D0E94F5
:101710007B03F801EC0DFD1DEE0FFF1FED55FE4F95
:101720001182108271CFA1E21A2EAA1BBB1BFD01F0
:101730000DC0AA1FBB1FEE1FFF1FA217B307E407B0
:10174000F50720F0A21BB30BE40BF50B661F771F08
:10175000881F991F1A9469F76095709580959095E8
:101760009B01AC01BD01CF010895EE0FFF1F059055
:0A177000F491E02D0994F894FFCFE6
:10177A00FFFFFFFF00E10000000000001500140059
:10178A00130012000F002E002C0034002A0036002D
:10179A0035003300320025002D002B0021003D00CA
:1017AA003C003B00310026002400230022003E00BA
:1017BA00430042003A001E001D001B001A000900E7
:1017CA0044004B004900160015001C001200450099
:1017DA004D005A0000000E0010000A00090008001F
:1017EA0007000600050000C180810000000000001B
:1017FA000012028205330228027902370255020DCD
:0E180A000A002C20007263200063632000009F
:00000001FF
